{"bytecode":"60a060405234801561001057600080fd5b5060405161053838038061053883398101604081905261002f91610063565b33608052600080546001600160a01b03929092166001600160a01b0319928316811790915560018054909216179055610093565b60006020828403121561007557600080fd5b81516001600160a01b038116811461008c57600080fd5b9392505050565b6080516104846100b4600039600081816061015261012d01526104846000f3fe60806040526004361061004a5760003560e01c80632fef52b21461004f5780639ee1779c146100a0578063a8146046146100c2578063ae242cdf146100e2578063b35fbb2714610102575b600080fd5b34801561005b57600080fd5b506100837f000000000000000000000000000000000000000000000000000000000000000081565b6040516001600160a01b0390911681526020015b60405180910390f35b3480156100ac57600080fd5b506100c06100bb3660046102e4565b610122565b005b6100d56100d0366004610308565b6101e1565b6040516100979190610358565b3480156100ee57600080fd5b50600154610083906001600160a01b031681565b34801561010e57600080fd5b50600054610083906001600160a01b031681565b336001600160a01b037f000000000000000000000000000000000000000000000000000000000000000016146101b55760405162461bcd60e51b815260206004820152602e60248201527f4f6e6c79207468652064676473446576656c6f7065722063616e2063616c6c2060448201526d3a3434b990333ab731ba34b7b71760911b606482015260840160405180910390fd5b600080546001600160a01b039092166001600160a01b0319928316811790915560018054909216179055565b6040516060906001600160a01b038416903480156108fc02916000818181858888f19350505050158015610219573d6000803e3d6000fd5b5060015460405163258e2e6960e11b8152600481018490526000916001600160a01b031690634b1c5cd290602401600060405180830381865afa158015610264573d6000803e3d6000fd5b505050506040513d6000823e601f3d908101601f1916820160405261028c91908101906103a1565b90507f1b8a3cb832348bb85f2b0306fedaa4b580a822f70c493adfbf077cf5f959b8c2816040516102bd9190610358565b60405180910390a19392505050565b6001600160a01b03811681146102e157600080fd5b50565b6000602082840312156102f657600080fd5b8135610301816102cc565b9392505050565b6000806040838503121561031b57600080fd5b8235610326816102cc565b946020939093013593505050565b60005b8381101561034f578181015183820152602001610337565b50506000910152565b6020815260008251806020840152610377816040850160208701610334565b601f01601f19169190910160400192915050565b634e487b7160e01b600052604160045260246000fd5b6000602082840312156103b357600080fd5b815167ffffffffffffffff808211156103cb57600080fd5b818401915084601f8301126103df57600080fd5b8151818111156103f1576103f161038b565b604051601f8201601f19908116603f011681019083821181831017156104195761041961038b565b8160405282815287602084870101111561043257600080fd5b610443836020830160208801610334565b97965050505050505056fea26469706673582212206fece48fb5691f1dfc779994df79daafc1ecae733f84969f999db53441dfbd5b64736f6c63430008140033","bytecodeSha1":"83643307492e8341acf45b59a321ff5ff76c634e","type":"contract","abi":[{"inputs":[{"internalType":"address","name":"_deployedContractAddress","type":"address"}],"stateMutability":"nonpayable","type":"constructor","name":"constructor"},{"anonymous":false,"inputs":[{"indexed":false,"internalType":"string","name":"information","type":"string"}],"name":"InformationRetrieved","type":"event"},{"inputs":[],"name":"deployedContract","outputs":[{"internalType":"contract DeveloperContract","name":"","type":"address"}],"stateMutability":"view","type":"function"},{"inputs":[],"name":"deployedContractAddress","outputs":[{"internalType":"address","name":"","type":"address"}],"stateMutability":"view","type":"function"},{"inputs":[],"name":"dgdsDeveloper","outputs":[{"internalType":"address","name":"","type":"address"}],"stateMutability":"view","type":"function"},{"inputs":[{"internalType":"address payable","name":"gameDeveloper","type":"address"},{"internalType":"uint256","name":"gameId","type":"uint256"}],"name":"payAndRetrieveInformation","outputs":[{"internalType":"string","name":"","type":"string"}],"stateMutability":"payable","type":"function"},{"inputs":[{"internalType":"address","name":"_deployedContractAddress","type":"address"}],"name":"updateDeployedContractAddress","outputs":[],"stateMutability":"nonpayable","type":"function"}],"compiler":{"version":"0.8.20+commit.a1b79de6","evm_version":"istanbul","optimizer":{"enabled":true,"runs":200}},"contractName":"BuyGameContract","language":"Solidity","natspec":{"methods":{},"kind":"dev","version":1},"opcodes":"PUSH1 0x80 PUSH1 0x40 MSTORE PUSH1 0x4 CALLDATASIZE LT PUSH2 0x4A JUMPI PUSH1 0x0 CALLDATALOAD PUSH1 0xE0 SHR DUP1 PUSH4 0x2FEF52B2 EQ PUSH2 0x4F JUMPI DUP1 PUSH4 0x9EE1779C EQ PUSH2 0xA0 JUMPI DUP1 PUSH4 0xA8146046 EQ PUSH2 0xC2 JUMPI DUP1 PUSH4 0xAE242CDF EQ PUSH2 0xE2 JUMPI DUP1 PUSH4 0xB35FBB27 EQ PUSH2 0x102 JUMPI JUMPDEST PUSH1 0x0 DUP1 REVERT JUMPDEST CALLVALUE DUP1 ISZERO PUSH2 0x5B JUMPI PUSH1 0x0 DUP1 REVERT JUMPDEST POP PUSH2 0x83 PUSH32 0x0 DUP2 JUMP JUMPDEST PUSH1 0x40 MLOAD PUSH1 0x1 PUSH1 0x1 PUSH1 0xA0 SHL SUB SWAP1 SWAP2 AND DUP2 MSTORE PUSH1 0x20 ADD JUMPDEST PUSH1 0x40 MLOAD DUP1 SWAP2 SUB SWAP1 RETURN JUMPDEST CALLVALUE DUP1 ISZERO PUSH2 0xAC JUMPI PUSH1 0x0 DUP1 REVERT JUMPDEST POP PUSH2 0xC0 PUSH2 0xBB CALLDATASIZE PUSH1 0x4 PUSH2 0x2E4 JUMP JUMPDEST PUSH2 0x122 JUMP JUMPDEST STOP JUMPDEST PUSH2 0xD5 PUSH2 0xD0 CALLDATASIZE PUSH1 0x4 PUSH2 0x308 JUMP JUMPDEST PUSH2 0x1E1 JUMP JUMPDEST PUSH1 0x40 MLOAD PUSH2 0x97 SWAP2 SWAP1 PUSH2 0x358 JUMP JUMPDEST CALLVALUE DUP1 ISZERO PUSH2 0xEE JUMPI PUSH1 0x0 DUP1 REVERT JUMPDEST POP PUSH1 0x1 SLOAD PUSH2 0x83 SWAP1 PUSH1 0x1 PUSH1 0x1 PUSH1 0xA0 SHL SUB AND DUP2 JUMP JUMPDEST CALLVALUE DUP1 ISZERO PUSH2 0x10E JUMPI PUSH1 0x0 DUP1 REVERT JUMPDEST POP PUSH1 0x0 SLOAD PUSH2 0x83 SWAP1 PUSH1 0x1 PUSH1 0x1 PUSH1 0xA0 SHL SUB AND DUP2 JUMP JUMPDEST CALLER PUSH1 0x1 PUSH1 0x1 PUSH1 0xA0 SHL SUB PUSH32 0x0 AND EQ PUSH2 0x1B5 JUMPI PUSH1 0x40 MLOAD PUSH3 0x461BCD PUSH1 0xE5 SHL DUP2 MSTORE PUSH1 0x20 PUSH1 0x4 DUP3 ADD MSTORE PUSH1 0x2E PUSH1 0x24 DUP3 ADD MSTORE PUSH32 0x4F6E6C79207468652064676473446576656C6F7065722063616E2063616C6C20 PUSH1 0x44 DUP3 ADD MSTORE PUSH14 0x3A3434B990333AB731BA34B7B717 PUSH1 0x91 SHL PUSH1 0x64 DUP3 ADD MSTORE PUSH1 0x84 ADD PUSH1 0x40 MLOAD DUP1 SWAP2 SUB SWAP1 REVERT JUMPDEST PUSH1 0x0 DUP1 SLOAD PUSH1 0x1 PUSH1 0x1 PUSH1 0xA0 SHL SUB SWAP1 SWAP3 AND PUSH1 0x1 PUSH1 0x1 PUSH1 0xA0 SHL SUB NOT SWAP3 DUP4 AND DUP2 OR SWAP1 SWAP2 SSTORE PUSH1 0x1 DUP1 SLOAD SWAP1 SWAP3 AND OR SWAP1 SSTORE JUMP JUMPDEST PUSH1 0x40 MLOAD PUSH1 0x60 SWAP1 PUSH1 0x1 PUSH1 0x1 PUSH1 0xA0 SHL SUB DUP5 AND SWAP1 CALLVALUE DUP1 ISZERO PUSH2 0x8FC MUL SWAP2 PUSH1 0x0 DUP2 DUP2 DUP2 DUP6 DUP9 DUP9 CALL SWAP4 POP POP POP POP ISZERO DUP1 ISZERO PUSH2 0x219 JUMPI RETURNDATASIZE PUSH1 0x0 DUP1 RETURNDATACOPY RETURNDATASIZE PUSH1 0x0 REVERT JUMPDEST POP PUSH1 0x1 SLOAD PUSH1 0x40 MLOAD PUSH4 0x258E2E69 PUSH1 0xE1 SHL DUP2 MSTORE PUSH1 0x4 DUP2 ADD DUP5 SWAP1 MSTORE PUSH1 0x0 SWAP2 PUSH1 0x1 PUSH1 0x1 PUSH1 0xA0 SHL SUB AND SWAP1 PUSH4 0x4B1C5CD2 SWAP1 PUSH1 0x24 ADD PUSH1 0x0 PUSH1 0x40 MLOAD DUP1 DUP4 SUB DUP2 DUP7 GAS STATICCALL ISZERO DUP1 ISZERO PUSH2 0x264 JUMPI RETURNDATASIZE PUSH1 0x0 DUP1 RETURNDATACOPY RETURNDATASIZE PUSH1 0x0 REVERT JUMPDEST POP POP POP POP PUSH1 0x40 MLOAD RETURNDATASIZE PUSH1 0x0 DUP3 RETURNDATACOPY PUSH1 0x1F RETURNDATASIZE SWAP1 DUP2 ADD PUSH1 0x1F NOT AND DUP3 ADD PUSH1 0x40 MSTORE PUSH2 0x28C SWAP2 SWAP1 DUP2 ADD SWAP1 PUSH2 0x3A1 JUMP JUMPDEST SWAP1 POP PUSH32 0x1B8A3CB832348BB85F2B0306FEDAA4B580A822F70C493ADFBF077CF5F959B8C2 DUP2 PUSH1 0x40 MLOAD PUSH2 0x2BD SWAP2 SWAP1 PUSH2 0x358 JUMP JUMPDEST PUSH1 0x40 MLOAD DUP1 SWAP2 SUB SWAP1 LOG1 SWAP4 SWAP3 POP POP POP JUMP JUMPDEST PUSH1 0x1 PUSH1 0x1 PUSH1 0xA0 SHL SUB DUP2 AND DUP2 EQ PUSH2 0x2E1 JUMPI PUSH1 0x0 DUP1 REVERT JUMPDEST POP JUMP JUMPDEST PUSH1 0x0 PUSH1 0x20 DUP3 DUP5 SUB SLT ISZERO PUSH2 0x2F6 JUMPI PUSH1 0x0 DUP1 REVERT JUMPDEST DUP2 CALLDATALOAD PUSH2 0x301 DUP2 PUSH2 0x2CC JUMP JUMPDEST SWAP4 SWAP3 POP POP POP JUMP JUMPDEST PUSH1 0x0 DUP1 PUSH1 0x40 DUP4 DUP6 SUB SLT ISZERO PUSH2 0x31B JUMPI PUSH1 0x0 DUP1 REVERT JUMPDEST DUP3 CALLDATALOAD PUSH2 0x326 DUP2 PUSH2 0x2CC JUMP JUMPDEST SWAP5 PUSH1 0x20 SWAP4 SWAP1 SWAP4 ADD CALLDATALOAD SWAP4 POP POP POP JUMP JUMPDEST PUSH1 0x0 JUMPDEST DUP4 DUP2 LT ISZERO PUSH2 0x34F JUMPI DUP2 DUP2 ADD MLOAD DUP4 DUP3 ADD MSTORE PUSH1 0x20 ADD PUSH2 0x337 JUMP JUMPDEST POP POP PUSH1 0x0 SWAP2 ADD MSTORE JUMP JUMPDEST PUSH1 0x20 DUP2 MSTORE PUSH1 0x0 DUP3 MLOAD DUP1 PUSH1 0x20 DUP5 ADD MSTORE PUSH2 0x377 DUP2 PUSH1 0x40 DUP6 ADD PUSH1 0x20 DUP8 ADD PUSH2 0x334 JUMP JUMPDEST PUSH1 0x1F ADD PUSH1 0x1F NOT AND SWAP2 SWAP1 SWAP2 ADD PUSH1 0x40 ADD SWAP3 SWAP2 POP POP JUMP JUMPDEST PUSH4 0x4E487B71 PUSH1 0xE0 SHL PUSH1 0x0 MSTORE PUSH1 0x41 PUSH1 0x4 MSTORE PUSH1 0x24 PUSH1 0x0 REVERT JUMPDEST PUSH1 0x0 PUSH1 0x20 DUP3 DUP5 SUB SLT ISZERO PUSH2 0x3B3 JUMPI PUSH1 0x0 DUP1 REVERT JUMPDEST DUP2 MLOAD PUSH8 0xFFFFFFFFFFFFFFFF DUP1 DUP3 GT ISZERO PUSH2 0x3CB JUMPI PUSH1 0x0 DUP1 REVERT JUMPDEST DUP2 DUP5 ADD SWAP2 POP DUP5 PUSH1 0x1F DUP4 ADD SLT PUSH2 0x3DF JUMPI PUSH1 0x0 DUP1 REVERT JUMPDEST DUP2 MLOAD DUP2 DUP2 GT ISZERO PUSH2 0x3F1 JUMPI PUSH2 0x3F1 PUSH2 0x38B JUMP JUMPDEST PUSH1 0x40 MLOAD PUSH1 0x1F DUP3 ADD PUSH1 0x1F NOT SWAP1 DUP2 AND PUSH1 0x3F ADD AND DUP2 ADD SWAP1 DUP4 DUP3 GT DUP2 DUP4 LT OR ISZERO PUSH2 0x419 JUMPI PUSH2 0x419 PUSH2 0x38B JUMP JUMPDEST DUP2 PUSH1 0x40 MSTORE DUP3 DUP2 MSTORE DUP8 PUSH1 0x20 DUP5 DUP8 ADD ADD GT ISZERO PUSH2 0x432 JUMPI PUSH1 0x0 DUP1 REVERT JUMPDEST PUSH2 0x443 DUP4 PUSH1 0x20 DUP4 ADD PUSH1 0x20 DUP9 ADD PUSH2 0x334 JUMP JUMPDEST SWAP8 SWAP7 POP POP POP POP POP POP POP JUMP INVALID LOG2 PUSH5 0x6970667358 0x22 SLT KECCAK256 PUSH16 0xECE48FB5691F1DFC779994DF79DAAFC1 0xEC 0xAE PUSH20 0x3F84969F999DB53441DFBD5B64736F6C63430008 EQ STOP CALLER ","sha1":"4c2f75cb0e628d8e1ed36f8689262f673c5b5ef7","source":"// SPDX-License-Identifier: MIT\n\npragma solidity ^0.8.0;\n\nimport \"./DeveloperContract.sol\";\n\ncontract BuyGameContract {\n    address public immutable dgdsDeveloper;\n    address public deployedContractAddress;\n    DeveloperContract public deployedContract;\n\n    event InformationRetrieved(string information);\n\n    constructor(address _deployedContractAddress) {\n        dgdsDeveloper = msg.sender;\n        deployedContractAddress = _deployedContractAddress;\n        deployedContract = DeveloperContract(deployedContractAddress);\n    }\n\n    modifier onlyOwner() {\n        require(\n            msg.sender == dgdsDeveloper,\n            \"Only the dgdsDeveloper can call this function.\"\n        );\n        _;\n    }\n\n    function payAndRetrieveInformation(\n        address payable gameDeveloper,\n        uint256 gameId\n    ) external payable returns (string memory) {\n        // require(msg.value > price, \"Payment amount must be greater than price.\");\n\n        // // Transfer the payment to the dgdsDeveloper\n        gameDeveloper.transfer(msg.value);\n\n        // // Retrieve information from the deployed contract\n        string memory information = deployedContract.getMetadataFromID(gameId);\n\n        // // Emit an event with the retrieved information\n        emit InformationRetrieved(information);\n\n        return information;\n    }\n\n    function updateDeployedContractAddress(\n        address _deployedContractAddress\n    ) external onlyOwner {\n        deployedContractAddress = _deployedContractAddress;\n        deployedContract = DeveloperContract(deployedContractAddress);\n    }\n}\n","sourcePath":"contracts/BuyGameContract.sol","deployment":{"address":"0x5e51699C8c8D22B5102981C758F943D262f9c649","chainid":"11155111","blockHeight":3622576}}